{
  "contractName": "FakBlock",
  "abi": [
    {
      "constant": true,
      "inputs": [
        {
          "name": "fakHash",
          "type": "bytes32"
        }
      ],
      "name": "getState",
      "outputs": [
        {
          "name": "",
          "type": "uint8"
        }
      ],
      "payable": false,
      "stateMutability": "view",
      "type": "function"
    },
    {
      "constant": true,
      "inputs": [
        {
          "name": "fakHash",
          "type": "bytes32"
        }
      ],
      "name": "getOwner",
      "outputs": [
        {
          "name": "",
          "type": "address"
        }
      ],
      "payable": false,
      "stateMutability": "view",
      "type": "function"
    },
    {
      "constant": false,
      "inputs": [
        {
          "name": "fakHash",
          "type": "bytes32"
        }
      ],
      "name": "createFack",
      "outputs": [
        {
          "name": "",
          "type": "bool"
        }
      ],
      "payable": false,
      "stateMutability": "nonpayable",
      "type": "function"
    }
  ],
  "bytecode": "0x608060405234801561001057600080fd5b50610214806100206000396000f3006080604052600436106100565763ffffffff7c010000000000000000000000000000000000000000000000000000000060003504166309648a9d811461005b578063cbf72dc514610097578063deb931a2146100c3575b600080fd5b34801561006757600080fd5b50610073600435610104565b6040518082600181111561008357fe5b60ff16815260200191505060405180910390f35b3480156100a357600080fd5b506100af600435610131565b604080519115158252519081900360200190f35b3480156100cf57600080fd5b506100db6004356101c0565b6040805173ffffffffffffffffffffffffffffffffffffffff9092168252519081900360200190f35b60009081526020819052604090205474010000000000000000000000000000000000000000900460ff1690565b60008181526020819052604081205473ffffffffffffffffffffffffffffffffffffffff161561016057600080fd5b506000908152602081905260409020805473ffffffffffffffffffffffffffffffffffffffff1916331774ff0000000000000000000000000000000000000000191674010000000000000000000000000000000000000000179055600190565b60009081526020819052604090205473ffffffffffffffffffffffffffffffffffffffff16905600a165627a7a7230582042bfe10e7035d753d3b48f3262636094b881e34dfa8b7e1cfe86168f2a0394220029",
  "source": "pragma solidity ^0.4.24;\n\n\ncontract FakBlock {\n\n  enum FakState { New, Sold }\n\n  struct FakRecord {\n      address owner;\n      FakState state;\n  }\n\n\tmapping (bytes32 => FakRecord) invoices;\n\n  function getState(bytes32 fakHash) public view returns (FakState) {\n    return invoices[fakHash].state;\n  }\n\n  function getOwner(bytes32 fakHash) public view returns (address) {\n      return invoices[fakHash].owner;\n  }\n\n  function createFack(bytes32 fakHash) public returns(bool) {\n    require(invoices[fakHash].owner == address(0));\n    invoices[fakHash].owner = msg.sender;\n    invoices[fakHash].state = FakState.Sold;\n    return true;\n  }\n\n}\n",
  "sourcePath": "/home/msieminski/workspace/trufle-test/ngTruffle/contracts/FakBlock.sol",
  "compiler": {
    "name": "solc",
    "version": "0.4.24+commit.e67f0147.Emscripten.clang"
  },
  "schemaVersion": "2.0.1",
  "updatedAt": "2018-08-30T15:22:13.880Z"
}