{
  "contractName": "FakBlock",
  "abi": [
    {
      "anonymous": false,
      "inputs": [
        {
          "indexed": false,
          "name": "owner",
          "type": "address"
        },
        {
          "indexed": false,
          "name": "state",
          "type": "uint8"
        },
        {
          "indexed": false,
          "name": "ipfs_hash",
          "type": "bytes32"
        }
      ],
      "name": "Create",
      "type": "event"
    },
    {
      "constant": true,
      "inputs": [
        {
          "name": "fakHash",
          "type": "bytes32"
        }
      ],
      "name": "getState",
      "outputs": [
        {
          "name": "",
          "type": "uint8"
        }
      ],
      "payable": false,
      "stateMutability": "view",
      "type": "function"
    },
    {
      "constant": true,
      "inputs": [
        {
          "name": "fakHash",
          "type": "bytes32"
        }
      ],
      "name": "getOwner",
      "outputs": [
        {
          "name": "",
          "type": "address"
        }
      ],
      "payable": false,
      "stateMutability": "view",
      "type": "function"
    },
    {
      "constant": true,
      "inputs": [
        {
          "name": "fakHash",
          "type": "bytes32"
        }
      ],
      "name": "getIpfsHash",
      "outputs": [
        {
          "name": "",
          "type": "bytes32"
        }
      ],
      "payable": false,
      "stateMutability": "view",
      "type": "function"
    },
    {
      "constant": true,
      "inputs": [
        {
          "name": "owner",
          "type": "address"
        }
      ],
      "name": "getFakByOwner",
      "outputs": [
        {
          "name": "",
          "type": "bytes32[]"
        }
      ],
      "payable": false,
      "stateMutability": "view",
      "type": "function"
    },
    {
      "constant": false,
      "inputs": [
        {
          "name": "fakHash",
          "type": "bytes32"
        },
        {
          "name": "ipfs_hash",
          "type": "bytes32"
        }
      ],
      "name": "createFack",
      "outputs": [
        {
          "name": "",
          "type": "bool"
        }
      ],
      "payable": false,
      "stateMutability": "nonpayable",
      "type": "function"
    }
  ],
  "bytecode": "0x608060405234801561001057600080fd5b50610431806100206000396000f30060806040526004361061006c5763ffffffff7c010000000000000000000000000000000000000000000000000000000060003504166309648a9d81146100715780630e19e6a6146100ad5780631aa856e8146100dc578063deb931a21461015a578063eb1fbf151461019b575b600080fd5b34801561007d57600080fd5b506100896004356101c5565b6040518082600181111561009957fe5b60ff16815260200191505060405180910390f35b3480156100b957600080fd5b506100c86004356024356101f2565b604080519115158252519081900360200190f35b3480156100e857600080fd5b5061010a73ffffffffffffffffffffffffffffffffffffffff6004351661034e565b60408051602080825283518183015283519192839290830191858101910280838360005b8381101561014657818101518382015260200161012e565b505050509050019250505060405180910390f35b34801561016657600080fd5b506101726004356103c8565b6040805173ffffffffffffffffffffffffffffffffffffffff9092168252519081900360200190f35b3480156101a757600080fd5b506101b36004356103f0565b60408051918252519081900360200190f35b60009081526020819052604090205474010000000000000000000000000000000000000000900460ff1690565b60008281526020819052604081205473ffffffffffffffffffffffffffffffffffffffff161561028357604080517f08c379a000000000000000000000000000000000000000000000000000000000815260206004820152600960248201527f6475706c69636174650000000000000000000000000000000000000000000000604482015290519081900360640190fd5b600083815260208181526040808320805460018083018890557401000000000000000000000000000000000000000074ff0000000000000000000000000000000000000000193373ffffffffffffffffffffffffffffffffffffffff19909416841716179092558085528184528285208054808401825590865294849020909401879055815193845291830191909152818101859052517fb039e3e461a37f1643a891ba59f5cbd4bcd074047da6820e83a9126711144c63916060908290030190a150600192915050565b73ffffffffffffffffffffffffffffffffffffffff81166000908152600160209081526040918290208054835181840281018401909452808452606093928301828280156103bc57602002820191906000526020600020905b815481526001909101906020018083116103a7575b50505050509050919050565b60009081526020819052604090205473ffffffffffffffffffffffffffffffffffffffff1690565b600090815260208190526040902060010154905600a165627a7a7230582069135e547bdd00d9f55aeaea67f3a0edd90b3e9a29829a7804048cfb622604670029",
  "source": "pragma solidity ^0.4.24;\n\n\ncontract FakBlock {\n\n    event Create(address owner, FakState state, bytes32 ipfs_hash);\n\n    enum FakState { New, Sold }\n\n    struct FakRecord {\n        address owner;\n        FakState state;\n        bytes32 ipfs_hash; //TODO replace with smaller type\n    }\n\n    mapping (bytes32 => FakRecord) invoices;\n    mapping (address => bytes32[]) owners;\n\n    function getState(bytes32 fakHash) public view returns (FakState) {\n        return invoices[fakHash].state;\n    }\n\n    function getOwner(bytes32 fakHash) public view returns (address) {\n        return invoices[fakHash].owner;\n    }\n\n    function getIpfsHash(bytes32 fakHash) public view returns (bytes32) {\n        return invoices[fakHash].ipfs_hash;\n    }\n\n    function getFakByOwner(address owner) public view returns (bytes32[]) {\n        return owners[owner];\n    }\n\n    function createFack(bytes32 fakHash, bytes32 ipfs_hash) public returns(bool) {\n        require(invoices[fakHash].owner == address(0), \"duplicate\");\n        invoices[fakHash].owner = msg.sender;\n        invoices[fakHash].ipfs_hash = ipfs_hash;\n        invoices[fakHash].state = FakState.Sold;\n        owners[msg.sender].push(fakHash);\n        emit Create(msg.sender, FakState.Sold, fakHash);\n        return true;\n    }\n\n}\n",
  "sourcePath": "/home/msieminski/workspace/trufle-test/ngTruffle/contracts/FakBlock.sol",
  "compiler": {
    "name": "solc",
    "version": "0.4.24+commit.e67f0147.Emscripten.clang"
  },
  "schemaVersion": "2.0.1",
  "updatedAt": "2018-09-28T13:16:17.081Z"
}