{
  "contractName": "FakBlock",
  "abi": [
    {
      "constant": true,
      "inputs": [
        {
          "name": "fakHash",
          "type": "bytes32"
        }
      ],
      "name": "getState",
      "outputs": [
        {
          "name": "",
          "type": "uint8"
        }
      ],
      "payable": false,
      "stateMutability": "view",
      "type": "function"
    },
    {
      "constant": true,
      "inputs": [
        {
          "name": "fakHash",
          "type": "bytes32"
        }
      ],
      "name": "getOwner",
      "outputs": [
        {
          "name": "",
          "type": "address"
        }
      ],
      "payable": false,
      "stateMutability": "view",
      "type": "function"
    },
    {
      "constant": true,
      "inputs": [
        {
          "name": "fakHash",
          "type": "bytes32"
        }
      ],
      "name": "getIpfsHash",
      "outputs": [
        {
          "name": "",
          "type": "address"
        }
      ],
      "payable": false,
      "stateMutability": "view",
      "type": "function"
    },
    {
      "constant": true,
      "inputs": [
        {
          "name": "owner",
          "type": "address"
        }
      ],
      "name": "getFakByOwner",
      "outputs": [
        {
          "name": "",
          "type": "bytes32[]"
        }
      ],
      "payable": false,
      "stateMutability": "view",
      "type": "function"
    },
    {
      "constant": false,
      "inputs": [
        {
          "name": "fakHash",
          "type": "bytes32"
        },
        {
          "name": "ipfs_hash",
          "type": "bytes32"
        }
      ],
      "name": "createFack",
      "outputs": [
        {
          "name": "",
          "type": "bool"
        }
      ],
      "payable": false,
      "stateMutability": "nonpayable",
      "type": "function"
    }
  ],
  "bytecode": "0x608060405234801561001057600080fd5b506103aa806100206000396000f30060806040526004361061006c5763ffffffff7c010000000000000000000000000000000000000000000000000000000060003504166309648a9d81146100715780630e19e6a6146100ad5780631aa856e8146100dc578063deb931a21461015a578063eb1fbf151461015a575b600080fd5b34801561007d57600080fd5b5061008960043561019b565b6040518082600181111561009957fe5b60ff16815260200191505060405180910390f35b3480156100b957600080fd5b506100c86004356024356101c8565b604080519115158252519081900360200190f35b3480156100e857600080fd5b5061010a73ffffffffffffffffffffffffffffffffffffffff600435166102dc565b60408051602080825283518183015283519192839290830191858101910280838360005b8381101561014657818101518382015260200161012e565b505050509050019250505060405180910390f35b34801561016657600080fd5b50610172600435610356565b6040805173ffffffffffffffffffffffffffffffffffffffff9092168252519081900360200190f35b60009081526020819052604090205474010000000000000000000000000000000000000000900460ff1690565b60008281526020819052604081205473ffffffffffffffffffffffffffffffffffffffff161561025957604080517f08c379a000000000000000000000000000000000000000000000000000000000815260206004820152600960248201527f6475706c69636174650000000000000000000000000000000000000000000000604482015290519081900360640190fd5b50600082815260208181526040808320805460018083019690965573ffffffffffffffffffffffffffffffffffffffff19163390811774ff00000000000000000000000000000000000000001916740100000000000000000000000000000000000000001790915583528382528220805480850182559083529120019190915590565b73ffffffffffffffffffffffffffffffffffffffff811660009081526001602090815260409182902080548351818402810184019094528084526060939283018282801561034a57602002820191906000526020600020905b81548152600190910190602001808311610335575b50505050509050919050565b60009081526020819052604090205473ffffffffffffffffffffffffffffffffffffffff16905600a165627a7a72305820d10bd26fd40a3e5383652dbbdc1ceb210d4c877cf50fb80213e9d08ba413284e0029",
  "source": "pragma solidity ^0.4.24;\n\n\ncontract FakBlock {\n\n    enum FakState { New, Sold }\n\n    struct FakRecord {\n        address owner;\n        FakState state;\n        bytes32 ipfs_hash; //TODO replace with smaller type\n    }\n\n    mapping (bytes32 => FakRecord) invoices;\n    mapping (address => bytes32[]) owners;\n\n    function getState(bytes32 fakHash) public view returns (FakState) {\n        return invoices[fakHash].state;\n    }\n\n    function getOwner(bytes32 fakHash) public view returns (address) {\n        return invoices[fakHash].owner;\n    }\n\n    function getIpfsHash(bytes32 fakHash) public view returns (address) {\n        return invoices[fakHash].owner;\n    }\n\n    function getFakByOwner(address owner) public view returns (bytes32[]) {\n        return owners[owner];\n    }\n\n    function createFack(bytes32 fakHash, bytes32 ipfs_hash) public returns(bool) {\n        require(invoices[fakHash].owner == address(0), \"duplicate\");\n        invoices[fakHash].owner = msg.sender;\n        invoices[fakHash].ipfs_hash = ipfs_hash;\n        invoices[fakHash].state = FakState.Sold;\n        owners[msg.sender].push(fakHash);\n        return true;\n    }\n\n}\n",
  "sourcePath": "/home/msieminski/workspace/trufle-test/ngTruffle/contracts/FakBlock.sol",
  "compiler": {
    "name": "solc",
    "version": "0.4.24+commit.e67f0147.Emscripten.clang"
  },
  "schemaVersion": "2.0.1",
  "updatedAt": "2018-09-28T09:49:07.539Z"
}